:020000041000EA
:1000000000B5324B212058609868022188439860DF
:10001000D860186158612E4B002199600221596106
:100020000121F02299502B49196001219960352056
:1000300000F044F80222904214D00621196600F024
:1000400034F8196E01211966002018661A6600F04E
:100050002CF8196E196E196E052000F02FF8012189
:100060000842F9D1002199601B49196000215960AB
:100070001A491B48016001219960EB211966A021F2
:10008000196600F012F800219960164914480160C1
:100090000121996001BC002800D000471248134993
:1000A000086003C880F30888084703B5996A0420EC
:1000B0000142FBD001200142F8D103BD02B5186610
:1000C0001866FFF7F2FF186E186E02BD00000240BE
:1000D000000000180000070000035F00212200005C
:1000E000F4000018222000A00001001008ED00E03C
:1000F00000000000000000000000000074B24E7A12
:1001000000200420F7010010C3010010C5010010F9
:10011000C1010010C1010010C1010010C101001097
:10012000C1010010C1010010C1010010C701001081
:10013000C1010010C1010010C9010010CB01001065
:10014000CD010010CD010010CD010010CD01001037
:10015000CD010010CD010010CD010010CD01001027
:10016000CD010010CD010010CD010010CD01001017
:10017000CD010010CD010010CD010010CD01001007
:10018000CD010010CD010010CD010010CD010010F7
:10019000CD010010CD010010CD010010CD010010E7
:1001A000CD010010CD010010CD010010CD010010D7
:1001B000CD010010CD010010CD010010CD010010C7
:1001C00000BE00BE00BE00BE00BE00BE00F04BF888
:1001D000103800BEF2EB88712872001048720010CF
:1001E0003402001090A31AE700202149086006C8D5
:1001F00081F3088810471F48006800282FD10DA4FC
:100200000ECC002902D000F012F8F9E71A491B4A77
:10021000002000E001C19142FCD1194988471949E9
:1002200088471949884700BEFDE701C901C29A42C3
:10023000FBD3704748720010C0000020F00400207B
:10024000787600100000042000000420787600106A
:1002500000100420001004200000000070470B482C
:1002600003F0A2F80047EFF30580C0B2704700002A
:1002700008ED00E0000000D0F0040020B0120020E3
:10028000791400104904001075150010575600002D
:1002900006005250ABB36053986F001006005250E6
:1002A000861C0302A86F0010060052505422A29D23
:1002B000B86F001005005250DE65F46878760010C3
:1002C000F8B5C04610B5064C2378002B07D1054B76
:1002D000002B02D0044800E000BF0123237010BDB2
:1002E0002006002000000000586C0010044B10B5E0
:1002F000002B03D00349044800E000BF10BDC046F6
:100300000000000024060020586C0010F0B5C6461E
:1003100000B582B000F0AAFD02000B003C4F3D4941
:100320000A604B6038687968121A8B413A493B4839
:100330000A604B60110004F02DF9394C2378002B32
:100340001DD0384804F074F8D02380221B06120117
:100350005A619623344E9B00962133600023490056
:100360002370324804F016F900F080FD386079609F
:1003700000213068400802B080BCB846F0BDD023F0
:1003800080221B0612019A6101232948237004F080
:100390004FF8284B9C465C681B6800930194002C26
:1003A00012DD002100206346186059600023224CB2
:1003B000224A25686668521BB3411B4E52002060DA
:1003C000616032605108CCE7002C1DD0009B1C48B6
:1003D000DA001C4B804618489B181A685B68046852
:1003E0004568510012196B41009C019D02604360F9
:1003F00000230122A4185D4163460B4E4144316045
:100400001C605D604908ACE7052BDFD9C9E7C04631
:10041000100600200806002018060020586C001066
:10042000F0030020886C0010E80F0020A86C00107A
:10043000986C0010F8040020F0040020B85600006A
:10044000A8FDFFFFB80F002070B584B004F0AEF82F
:100450000B2000F03DF88024D022FA200021194B17
:100460008000120624015462186059609860D960B7
:10047000186159619861D961186259629862D962AC
:1004800094616422104B1A6000F044FB060000F0F7
:10049000EDFC322204000D00002312196B41994239
:1004A0000BD808D000210291019108493000009139
:1004B00000F034FBFEE79042F4D901225242D317F8
:1004C000F0E7C046B80F0020E80F00200D03001031
:1004D0000123D0228340120693629361094A83006C
:1004E0009446402263441968C0004A40C02111402C
:1004F0008022520113431960034B9C46052360443C
:100500004360704704C0014000400140F8B5EFF37C
:10051000108772B60E4E3368002BFCD0BFF35F8F8E
:10052000CB08C4180725A446C45C01230D40AB408A
:1005300018002040234208D1624623431370BFF3C2
:100540005F8F306087F31088F8BD100001F014F859
:100550002C0100D0F8B5CE4647468C4680B5EFF367
:10056000108872B6214D2C68002CFCD0BFF35F8F31
:100570009A422CD8D4080721055D061901241140A0
:100580008C402C421FD007218946063909E0D40847
:10059000055D06194C460F001440A7403C002F4251
:1005A00011D001329342F2D201204042BFF35F8F5B
:1005B00000220E4B1A6088F3108800280FDBC0BCA5
:1005C000B946B046F8BD2C4310003470EEE7BFF3D7
:1005D0005F8F00232B6088F3108801204042634620
:1005E000002BECD0089800F0C7FFC0462C0100D0CB
:1005F000024B18688007C00F7047C04600C0064015
:100600000021044B044ABFF35F8F02C39342FAD127
:100610007047C046000100D0800100D0044A107825
:10062000431CDBB2172B00D9102313707047C04650
:10063000F103002000B5054B83B0010000931822A0
:100640001F230348FFF786FF03B000BDD86C0010DE
:10065000C40A002083680B4810B584466144624494
:10066000090112019A18591854684B6801209C42DC
:1006700001D802D00020C0B210BD12680B689A42A7
:10068000F9D8F7E7FFFFFF0F0A4B1968EFF3108067
:1006900072B60A68002AFCD0BFF35F8F1B68BFF3F5
:1006A0005F8F00221A6080F3108840BF0020002175
:1006B0007047C046840F0020F8B557464E46454661
:1006C000DE46E0B5434D81468A466A68EFF31088FE
:1006D00072B61368002BFCD0BFF35F8F2E68B47B1B
:1006E000002C3ED0670033683F19033FDA19537876
:1006F000B373002B00D1F373002393705370137006
:10070000A968354A8C464946A21812016244116014
:10071000514651603149D36091603268D21993706B
:1007200053701370737B9B46002B35D02200190049
:10073000B068736898473268002820D05B465846F6
:100740005B005B44D719033BB870D118D35C002B16
:1007500000D07B705B460C7073735C451DD0002627
:1007600026E06B68BFF35F8F1C6088F31088012060
:100770004042F0BCBB46B246A946A046F8BD5B4627
:100780005B005B44033BD3189C70D119D25D002AF7
:1007900000D05A705B460B7074734A465346287DEE
:1007A00000F0B4FB061EDAD02100286800F026FE17
:1007B000EB686A681B19013B1B78BFF35F8F002150
:1007C000116088F310880020002ED2D11802204337
:1007D000CFE7C046F4030020FFFFFF0F890600109B
:1007E000F8B5574645464E46DE46E0B599460CAB51
:1007F00019780DAB1B78050090469A4607680029CA
:1008000012D1BE7B002E45D074003B68A419033C76
:100810001B195A783100BA73002A00D1FA730022EA
:100820009A705A701A7003E00E004C006418033C72
:100830002C4B00229C46AB6861449C464346090110
:1008400061440B604B464B600A9B8B600B9BCB60FB
:100850003B681B199A705A701A707B7B9B46002B61
:100860002CD032005946B8687B6898473A6800280F
:1008700017D05B4658465B005B441419033BA070DD
:10088000D118D35C002B00D063705B460E707B7375
:10089000B34514D03000F0BCBB46B246A946A046D2
:1008A000F8BD5B465B005B44033BD3189E70111997
:1008B000125D002A00D05A705B460B707E73424670
:1008C0004B46287D00F022FB041E06D05346002B29
:1008D00003D13100286800F091FD0E9B002BD9D088
:1008E0001C70D7E7FFFFFF0FF0B5DE464E465746B8
:1008F00045460023E0B58DB00A936B4B8200D35878
:100900000B90994600239B464B46079300F0AEFAA6
:10091000079C06000F006268EFF3108572B613683B
:10092000002BFCD022000794BFF35F8F2468637B09
:100930009946002B67D092685C4B90464B441B0154
:10094000984443461A685B6810001900801BB9413F
:1009500000295FDD0B9800F0D9FA002300269846A5
:1009600000279A46079C6368BFF35F8F5A461A6058
:1009700085F310885346002B08D10028C6D10DB04E
:10098000F0BCBB46B246A946A046F0BD0A9B414614
:1009900018024B461843D047089009916268EFF35C
:1009A000108572B61368002BFCD00794BFF35F8FDD
:1009B0000899099A002A48DB114303D0079B1B6959
:1009C000002B5DD1079B1B68DA7B002A07D0510002
:1009D0008A1819688C4649466244033A51704A465F
:1009E000DA734B46079A013BD168CA5C0132CA549C
:1009F0005B46079A13615368BFF35F8F5A461A60CC
:100A000085F3108882E700230026984600279A463F
:100A10000020A7E7002901D100289BD10021200058
:100A200000F04EFC43461E685F689B68079A9A4632
:100A30004346DB689846D3684B44013B1B780A93D6
:100A40001B020343136100208CE72369002BB9D0FC
:100A500033003C005B1A94411A002300A74219D8C6
:100A60009F421BD0594604910121039149460291AE
:100A700041460191514607980091FFF7B1FEB7E753
:100A800000F0F4F9089A099B06000F0092197B41C7
:100A90009942E5D901225242D317E3E79642E1D9C0
:100AA00001225242D317DDE76C0F0020FFFFFF0F3A
:100AB00010B5124C6368002B04D00A21104800F0D6
:100AC000B7FA10BD23000F4A1021206800F016FB72
:100AD000032000F0BFF9032000F08AFA03200A493E
:100AE00000F0CEF9FFF79AFD084B9C4603236044C3
:100AF0002375074B80006060DC60DEE7F4030020B4
:100B0000840F002055060010E90800104000003452
:100B10006C0F002000487047F4030020F0B55746E2
:100B20004546DE464E46E0B585B0019310AB1B78D6
:100B300000270393002380469A46009243465A6852
:100B4000EFF3108972B61368002BFCD0BFF35F8FF0
:100B500043461D68AC7B002C4FD066002B683619CD
:100B6000033E9B195A78AA73002A00D1EA734246C1
:100B70009F705F701F709268524B94460099019A63
:100B8000E3181B01634419605A600E9A9A600F9A29
:100B9000DA602B689B199F705F701F706B7B9B46A0
:100BA000002B46D022001900A8686B6898472A6875
:100BB000002831D05B4658465B005B449619033BE6
:100BC000B070D118D35C002B00D073705B460C70F2
:100BD0006B735C452ED04346DB681B19013B1878CC
:100BE00043465B68BFF35F8F1F6089F310885346ED
:100BF000002B2ED10002204307E05B68BFF35F8F1C
:100C00001C6089F310880120404205B0F0BCBB464F
:100C1000B246A946A046F0BD5B465B005B44033B81
:100C2000D3189C709119925D002A00D05A705B46CF
:100C30000B706C734346187D009A019B00F066F9B7
:100C400082460028C7D043462100186800F0D6FB32
:100C5000C1E7039B002B32D00E9B00200F999847D1
:100C6000030004000D000B4329D000290DDA009881
:100C7000019902000B00121BAB41994215D81AD002
:100C800000920193039B9A4658E700F0EFF80200A8
:100C90000B00A4185D412000290000900191AB4297
:100CA00003D8EFD100998A42ECD901235B42DC17CB
:100CB00000930194E6E700999142E1D9F5E700201D
:100CC000A3E7C046FFFFFF0FF8B5CE46474680B505
:100CD00006000C00FFF7F0FC00280CDC2D4B002078
:100CE000596A8C4203D89B6A0130B34245D3C0BCD9
:100CF000B946B046F8BD20BF274D6A68EFF31087AC
:100D000072B61368002BFCD0BFF35F8F2B68C1B2A3
:100D10009C465B7B8B4235D0FF2303405A009146B3
:100D200062461268994490464A464244033A927891
:100D3000002A1DD0EA68000A90464344013B1B7814
:100D4000C0B2834221D06B68BFF35F8F00221A606C
:100D500087F310880F4A0020536A9C42C7D8926AD2
:100D60000130B242C3D2E41A601E8441E0B2BEE751
:100D70002B699842E7D12A61E5E7641A601E844135
:100D8000E0B2B4E7FF230340D4E7604600F036FB4F
:100D9000D9E7C04600400540F4030020F0B5D64630
:100DA0004F464646C0B5EFF305833F221340180077
:100DB0001038EFF3108C72B6204D2A68002AFCD050
:100DC000BFF35F8F0122110081401D4C8846616393
:100DD0001C4917000E788A463100C1400F400A4274
:100DE00015D019498200646A51588C4219D3174BA7
:100DF000D25843469E4353461E70BFF35F8F002375
:100E00002B608CF31088002A06D0904704E0BFF3D3
:100E10005F8F2F608CF31088E0BCBA46B146A846BD
:100E2000F0BD0B4A9B00904643441A681A60BFF31A
:100E30005F8F00232B608CF31088EDE7280100D032
:100E400000400540B70F0020900F0020B40900209B
:100E5000D03F054010B50100024A0348FFF756FB9A
:100E600010BDC046F46C0010B40F0020034B596A4B
:100E70000A00986A596A8A42FAD1704700400540D0
:100E800070B504000D00EFF3108672B61A4A1368AD
:100E9000002BFCD0BFF35F8F002D1BD0200000F093
:100EA00001FD164981420AD0200000F003FD012116
:100EB000200000F0DDFC0123A340114A1360114B18
:100EC000A400E550BFF35F8F00220B4B1A6086F33E
:100ED000108870BD0B4BA200D5500122A2400A49D8
:100EE00020000B7893430B70044900F00DFD0021A6
:100EF000200000F0BDFCE5E7280100D09D0D0010AA
:100F000038600540B4090020B70F0020F0B54F4607
:100F1000D6464646C0B50700304C616A0D00A66A49
:100F2000616AA942FAD18B4208D805D00120E0BC01
:100F3000BA46B146A846F0BDB242F7D9EFF31089E0
:100F400072B6274801680029FCD0BFF35F8F0125E6
:100F50002449BD408C460978204C0E002E4388461B
:100F6000F1B28A46614650460870391D1E48890014
:100F700065630A51B9000B50216A0020294219D03B
:100F8000616A0800A66A616A8142FAD18B4219D867
:100F900001D1B24216D8C2451DD0104B1F201D6290
:100FA0005D6301230740BB40104A1E38136063464F
:100FB00042461A70BFF35F8F0022094B1A6089F313
:100FC0001088B4E70020BFF35F8F0022044B1A6043
:100FD00089F31088ABE70120ECE7C04600400540EC
:100FE000280100D0B70F0020900F002080E200E021
:100FF00010B5EFF3108472B60A490B68002BFCD0D1
:10100000BFF35F8F01238340074A084813620278C9
:101010009A430270BFF35F8F00230B6084F3108844
:1010200010BDC046280100D000400540B70F002089
:10103000024B9C46614489000160704740000034C7
:1010400010B50400FFF7EAFA01002000FFF7F0FFF7
:10105000FF23A380BFF35F8F10BDC04610B504000F
:10106000FFF7DCFA01002000FFF7E2FF01235B42FB
:10107000A380BFF35F8F10BD10B504000120FFF700
:10108000D9FA034BC3189B002360BFF35F8F10BDD9
:101090004000003470B505000E001400002924D073
:1010A000002A24D080686B689847296800280ED0F1
:1010B00063001B197200033B9219CB18033A9E7010
:1010C00088188A5C002A14D1047030000EE0730086
:1010D0009B196200033B1219CB18033A9C708818C5
:1010E0008A5C002A00D05A700670200070BD08008B
:1010F000FCE75A7004703000F8E7C04630B58360F2
:101100000023CCB243730133047342608373C4730E
:101110000D000068012C06D9421C0133DBB21370AC
:1011200003329C42F9D1FF2129404B00591800237A
:1011300040180338437030BDF8B5CE464746060028
:101140000C0080B5002907D04D0003686D18033DE1
:101150005A195778002F04D12000C0BCB946B046B8
:10116000F8BD7900C919033988464344597889463E
:1011700000215970517073683A00210080689847C7
:101180003368002814D042469A18947059195B5D50
:10119000002B00D053700F70270049463000FFF736
:1011A000CBFF390002003000FFF774FF0400D3E7E3
:1011B000424641465D19AF709A185B5C002B00D027
:1011C0006B701470E9E7C046F0B557464546DE46F9
:1011D0004E46E0B50D006B0001685B19DF1E040090
:1011E000C85D83B00192CA1900284CD043001B1877
:1011F000033BCB185E78B446002E16D1019E002E1C
:101200003ED0E67B002E04D073009B19CB18033B25
:101210005D70E57300282FD10023537003B0F0BC3C
:10122000BB46B246A946A046F0BD72006244033AEE
:1012300089184A78904600224A7091465A700100F7
:1012400032002000FFF726FF43468246002B07D0DE
:101250005B0021684344033BCB185A78002A16D11F
:10126000424651462000FFF715FF2168019BCA192D
:10127000002BC6D10028CFD043001B18033BCB184E
:1012800000219970C8E7019B002BBAD1C4E7500038
:1012900080180338091848788346484648705870C3
:1012A00041462000FFF7F6FE594680462000FFF732
:1012B00043FF414602002000FFF7ECFE8046CFE7E7
:1012C000F0B54E464546DE465746E0B5467B04003F
:1012D00075000068AD19033D83B00191415D42196D
:1012E00000294ED04B005B18033BC3185F78BC4607
:1012F000002F18D1019D002D40D0E57B002D04D09A
:101300006B005B19C318033B5E70E673002931D193
:10131000002330005370617303B0F0BCBB46B2468B
:10132000A946A046F0BD7A006244033A801842788C
:1013300093460022427091465A7020003A00FFF70F
:10134000A9FE5B468046002B07D05B0021685B440A
:10135000033BCB185A78002A17D15A464146200041
:10136000FFF798FE019B010020684219002BC4D1B1
:101370000029CDD04B005B18033BC31800209870A8
:10138000C6E7019B002BB8D1C2E750008018033894
:1013900009184878824648464870587059462000D7
:1013A000FFF778FE53468346002B07D05B00216889
:1013B0005344033BCB185A78002A06D1594652466B
:1013C0002000FFF767FE8346C7E750008018033808
:1013D000091848464F784870587051462000FFF76A
:1013E00059FE390081462000FFF7A6FE494602005B
:1013F0002000FFF74FFE8246E0E7C04670B50400CC
:1014000000292CD0437B8B422ED005684800401821
:10141000033828188278002A21D053009B18033BF8
:10142000EA5CEE188A4202D11BE0002A08D0530081
:101430009B18033BEB185A788A42F6D142785A70CF
:1014400000230122837043702000FFF7BDFE617B03
:1014500002002000FFF71EFE6073012000E0002064
:1014600070BD43783370EBE701221900FFF7ACFE43
:1014700060730120F4E7C0462F4B304A70B51A6004
:101480002F4A304B30491A6010008B689843FBD1CB
:101490002E4C2F4B9C4209D2013B1D1BAD08013540
:1014A000AD002D1908CC9847AC42FBD100F082F872
:1014B000284A244B1A60244A9368DB018033FBD10D
:1014C0004022254B254C9A675A671A67DA66244BE7
:1014D0009C4214D2013B1D1BED080135ED002D1976
:1014E00004E00834FFF7BAFDAC4208D0637920006D
:1014F000002BF6D10834FFF7A3FDAC42F6D1194C0E
:10150000194DA168C022280002F080FEA560FFF7F7
:1015100077F800F031FBFFF7CBFA144C144B9C42E8
:1015200009D2013B1D1BAD080135AD002D1908CCBA
:101530009847A542FBD170BD00E00040BFCDFBFE47
:10154000FE7F3C0000F0004000C00040D8040020B6
:10155000E8040020FFFFFF0100F00140D00400205C
:10156000D804002000ED00E000000020E804002086
:10157000F004002000BEFDE70FB400B5084883B0BA
:1015800002F056FF049B002B07D005A9180001911B
:1015900001F0EAFE034802F04BFF00BEFDE7C04643
:1015A000186D0010D46C001010B50148FFF7E4FF6F
:1015B000286D001030B50C2083B000F04BFBFFF716
:1015C00017F800280ED0944B944A1A605A609A601B
:1015D000DA601A615A619A61DA611A62904A5A6253
:1015E00003B030BD8F4CA06700F088FB01228E4B0A
:1015F0001A60636C012BFCD103228C4B1A60894A60
:10160000936B012BFCD102240121894A89480533BF
:10161000009400F0CDFA0523874A01218748009401
:1016200000F0C6FA864B5A68FF2A02D88022520080
:101630005A608022784C7D4B21691201804D1A60DE
:10164000002905D0606901F005FF01300138FDD1A6
:10165000E0217B4B02201A681140802252012A436C
:1016600011601968484003210140116004219A6803
:101670001142FCD08022802192012A43090111608D
:10168000802252005A606F4B23616F4B5968FF29CB
:1016900000D85A6003226C48634B01211A60020093
:1016A00093681942FCD0E02513681D4080235B013C
:1016B00003431D6012684A40032111401960022152
:1016C000614A93681942FCD0802380219B01034327
:1016D0000901196080215D4B4900516063615C4BD9
:1016E0005A68FF2A00D8596080225A4BE1691201DA
:1016F000574D1A60002905D0606901F0ABFE01303A
:101700000138FDD1E02252490B681A4080235B0169
:101710002B431A60802380229B012B4312011A6005
:1017200080223E4B52004A60E3614B4B5968FF29CF
:1017300000D85A608022494B216A1201464D1A6036
:10174000002905D0606901F085FE01300138FDD126
:10175000E02241490B681A4080235B012B431A6049
:10176000802380229B012B4312011A608023802258
:101770005B004B60294BD2022362394B596891427E
:1017800000D25A608022374B616A1201344D1A60D0
:10179000002905D0606901F05DFE01300138FDD1FE
:1017A000E0222F490B681A4080235B012B431A600B
:1017B000802380229B012B4312011A608023DB02CD
:1017C0004B60174B6362284B5A68FF2A02D880226D
:1017D00052005A608022254BA1691201224D1A60E5
:1017E000002905D0606901F035FE01300138FDD1D6
:1017F000E0221D490B681A4080235B012B431A60CD
:10180000802380229B012B4312011A6080235B00FE
:101810004B600E4BA361E3E6C80A0020006CDC02BB
:101820001BB70000008000403CB0004030B00040DA
:10183000002F68590080024000389C1C00C0024004
:1018400030800040001BB7003C80004040597307C7
:101850005480004054B000406080004060B00040C0
:101860006C8000406CB000404880004048B00040B0
:1018700001238340002904D0034A1360034A136004
:101880007047034A1360FBE780E200E000E100E0FC
:1018900080E100E001238340014A13607047C046A5
:1018A00000E200E0024B10309B688000C058704797
:1018B00000ED00E070B50D00EFF3108672B60F4A30
:1018C0001368002BFCD0BFF35F8F0D4B10309B686B
:1018D00084001B590B4A934203D09D4201D0FFF76D
:1018E00063FE074B9B681D51BFF35F8FBFF35F8F94
:1018F0000022024B1A6086F3108870BD240100D0CC
:1019000000ED00E0CD010010F0B5DE4657464E4632
:101910004546E0B50C0083B0EFF3108A72B65B4A1F
:101920001368002BFCD0BFF35F8F102291468144D7
:101930004A46574B96009B689D59564B98469D4288
:1019400005D0A54216D0544FEB1B2F2B14D9504B6A
:101950009B689D51BFF35F8FBFF35F8F00224B4B9E
:101960001A608AF3108803B0F0BCBB46B246A946A1
:10197000A046F0BD1D00EAE7012383409B465A467E
:10198000464B1B681A4000925A46454B1A60BFF3FB
:101990005F8FFEF768FC0190002803D0814501D0DD
:1019A000FFF702FE01232A009A431300DB1B5B4171
:1019B00042495943090D93689C4208D15BE04300BA
:1019C0001B189B00FB189868A04211D01A00062033
:1019D00010560028F3DA009B002B05D05A46314BF5
:1019E0001A602E4B1A60B2E75A462D4B1A60AEE7CA
:1019F00006201856002822DB4200111889007C18A6
:101A00008846A1689960E179D9710621615699717A
:101A1000A1797F291FD8A488F91A640524154444A4
:101A20000919E0240905490D24022143998012185F
:101A30001D4B9200BF181A781870BA71CBE7019845
:101A400000280BD1FF30907118489080164A10780A
:101A500011709871BFE7BD210902E7E7144A1549E3
:101A6000D21A083A5002400D014399801249520897
:101A70000A43DA80AFE70620105613000028BBDACD
:101A8000019A002AEAD14546E0E7C046240100D089
:101A900000ED00E0CD0100101C04002000E100E09A
:101AA00080E100E080E200E0B50F002000BDFFFF14
:101AB0005604002000F0FFFF00F8FFFFAAAA000074
:101AC000F8B5012504000543FEF7CDFB0200EFF356
:101AD000108672B621490B68002BFCD0BFF35F8FD4
:101AE0001F492000401A4041224B43431B0D1D4813
:101AF000920087685BB2BF58AF421CD006228A565C
:101B00009A421CD012228A569A4222D01E228A560B
:101B10009A4220D02A228A5603209A4210D0124A92
:101B200011781370A171BFF35F8F00220B4B1A6005
:101B300086F31088F8BD81680C488850EFE70020D4
:101B40004200121892008918FF228A71084A8A807E
:101B5000E5E70120F4E70220F2E7C046240100D0C7
:101B60001C04002000ED00E0B50F0020CD010010A6
:101B700000BDFFFFAAAA0000F0B500220324FF2742
:101B8000802620003D00094B11009C461040C000FB
:101B90008540A14361440B680132AB433500854069
:101BA0002B430B60202AECD1F0BDC04600E400E0DE
:101BB000F8B504000C2017001D000E0001F04AFCCF
:101BC0004101091A8B01591AC90009188901380005
:101BD00001F040FC069A2B04120313432268002AEA
:101BE00021DB184AA21851424A41802149018C4602
:101BF00052420A40144962440A6014490A60144976
:101C000017008D68AF43FBD1C021221D890111430C
:101C100021222660A0600A602268002AFCDAE360C4
:101C200008230B60F8BD3F2221680A40B242D8D198
:101C3000A2681205120D8242D3D1E268002BD0D1E6
:101C4000F0E7C0460040FDBF00E0004000F000406B
:101C500000C000408023024A9B000343D3627047C8
:101C60000080054010B5140080221A4BD2051A607E
:101C700000282CD00123184A1843184BDA61184A5F
:101C800042401A62596298628022124BD2051A6051
:101C90001449154A1160E022D2041A60002C12D0B7
:101CA00080236201121B9200121912015B049A42F6
:101CB00000D30E4A0E4B1A60084B5A6080220D4B1F
:101CC000D2051A6010BD0C4A094B1A60F4E7034BA9
:101CD000D861D9E700B00540D3C007B00080054007
:101CE0002D3FF84FFCFF010008200140FFFFFF00DF
:101CF000640F002000A00540A0860100AA23064A28
:101D00001B0113602F230549D360054B19605368ED
:101D1000002BFCDA7047C0460040024000B0FA00D9
:101D2000006002407047C046F8B557464E46DE4652
:101D30004546E0B51F000A9B05009B460D9B0E0023
:101D4000914692469B0718D10B9B0C9A934214D252
:101D500013000B9AB8469B1A4B444C460F000600E2
:101D60001D0022004346013439002020B047AC4218
:101D7000F7D1AA4635003E0047460B9B002B38D0D2
:101D80009A441C00D04653461A1B5B46013C185D22
:101D900031003B00A847002CF5D10D9B9B0721D5B6
:101DA00043464A469C1A0C9BA3421BD93A009A46CA
:101DB0004F469146E2194B46310020200134A84796
:101DC0005445F7D343460C99DB1B0133B946002237
:101DD000994203D343464A1E4A44D21A4346904688
:101DE000013398444046F0BCBB46B246A946A046E3
:101DF000F8BDD046D1E7C046F0B54F464646D64678
:101E0000C0B584B098460EAB1B78129F9946944695
:101E10000D9C109B119EBA0725D4002E69D19C42BF
:101E200000D3C2E001223A4092461F2C00D9BBE009
:101E30000C9A551E302201E0202C03D001342A5583
:101E4000A342F9D85246002A0DD0B4420BD21F2C1F
:101E500062D80C9A551E302201E0202C5CD001344F
:101E60002A55B442F9D1FA0635D57A055DD4002C4D
:101E700057D10F9B102B00D17CE00F9B022B00D180
:101E80008DE030230C9A012413704B46002B27D091
:101E90002D230C9A135501340C9B62460093039733
:101EA000434602960194FFF73FFF04B0E0BCBA46F8
:101EB000B146A846F0BDBB0663D4202CECD00C9BE9
:101EC0001A19013478231370202CE5D030220C9B92
:101ED0001B191A700134202CDED04B46002BD7D1B1
:101EE0007B0735D43B07D7D520230C9A13550134F3
:101EF000D2E7012215003D40AA463A4220D04A4688
:101F0000002A2AD10C323A4227D19C429DD21F2C62
:101F100000D88DE7202E19D92024FA06BCD57A05E1
:101F200003D4A3421BD0A64219D00F9B102BC2D0C2
:101F3000022BC9D1202CAFD00C9B1B19013440E0DF
:101F40009C4200D38FE71F2C00D871E720248AE73A
:101F50002B230C9A135501349EE7013ED5E7631EEF
:101F6000012C00D185E70F9A102A20D0022A25D013
:101F70001C00ABE7BB060DD478230C9A0124137028
:101F8000A4E7202C00D187E758220C9B1B191A705C
:101F9000013499E758230C9A0124137096E70C9AA0
:101FA00060330124137091E7202400265BE7023C94
:101FB000BA06E9D40C9A12191C0083E70C9A9246CF
:101FC000534462221A707FE710B5002800D110BD7B
:101FD00002F020FAFBE7C0460B0010B5002802D043
:101FE00049681B68984710BDF0B5DE465746454620
:101FF0004E46E0B59BB09B46249B0A909846259B95
:102000000B910C924046424619009A4601F0F1FCB1
:10201000002800D0E8E00122404651467F4B524262
:1020200001F0E2FC002800D0DEE0012240465146EB
:102030007B4B524201F0C2FC002800D0D4E00022C9
:1020400000234046514601F0B9FC002800D0CAE107
:102050005346C14609938023289ADB001A400E920A
:10206000289A1A4201D1062326934C46099B234302
:1020700000D0D9E0289B002600271B0500D4AEE144
:1020800000230D93269B19000D9B994200DCB0E1C3
:10209000C81A431E26938023289ADB001A43002384
:1020A000002528920D93279B0024AB4200D95C1B8E
:1020B0000223289A1A400E92289A134203D06B42A8
:1020C0006B415B421C400D9B002B07D04846099991
:1020D00032003B0001F011FC8146099100220023EF
:1020E0004046514601F06AFC002805D080200006D9
:1020F0008446099961440991289A4A4B0A9E1340E3
:102100004A460493269B0B990293099B03940092E1
:10211000019330005B460C9A884600F0A1F9040058
:10212000002D72D0289B220098061F23C0179843C9
:1021300041465B466530B0470D9B671CDA179C181B
:10214000DB0F98466B1E99460025544001E0202D78
:1021500013D00AAA94461F23200063440A210135A4
:102160005E1901F077F93031317020000A2101F059
:1021700071F926000400092EE9D8052306934B4681
:102180000593002304930A33039343463A000A9EBF
:102190000B9F029312AB009339005B463000019510
:1021A000FFF72AFE0E9B0400002B2ED00C9B279AD3
:1021B000C51AAA4229D93C008146984617004346D1
:1021C00021005A1920205B460135B047AF42F6D8AE
:1021D0004C460C992798631A01330022984200D389
:1021E0000AE10134141910E0289B42460493279B0E
:1021F0000B990393269B0A980293534600920193EE
:102200005B460C9A00F02CF9040020001BB0F0BCD7
:10221000BB46B246A946A046F0BDC046FFFFEF7FD1
:10222000FFFFEFFFFFF7FFFF764B099D9C4668001D
:10223000400D604401F0F0FB734A744B01F07BFBEE
:10224000734A744B01F050FB2B03734A1B0B1A4368
:1022500006000F00714B110048460022099501F05D
:102260003AFB6F4A6F4B01F066FB02000B00300037
:10227000390001F039FB01F0E7FB0D9001F0CCFBD8
:10228000694A6A4B04000D0001F055FB0022684BBF
:1022900001F02AFB01F0D8FB664A0600664B2000DD
:1022A000290001F048FB040030000D000F9601F0FA
:1022B000B3FB624A624B01F03EFB02000B002000C0
:1022C000290001F008FB02000B0006000F0001F0DE
:1022D00032FB320004000D003B003000390001F0F9
:1022E00003FB002210901191564B2000290001F0B1
:1022F00004FB0022544B01F0F7FA02000B0020000F
:10230000290001F0FAFA0022504B01F0EDFA020028
:102310000B002000290001F0F0FA0D0080213200AE
:102320003B000400C905002001F0D5FA02000B00B3
:102330002000290001F0D8FA02000B001098119932
:1023400001F0DBFA0022344B01F0CEFA404A0F9B39
:102350009446634400221B0501F0EDFA06000F00CD
:1023600002000B004846099901F028FB00280AD01A
:102370000D9B3000013B39000D930022324B01F0E0
:10238000BCFA06000F00C6250D99330063318D425B
:10239000AD4128996D420435090500D483E63B43DD
:1023A00000D16FE6099C484621002A4A2A4B01F0D9
:1023B00013FB002808D0002248462100274B01F0DB
:1023C000FDFA002800D05DE6269B002B00D16AE6CE
:1023D0000E9B5A1E9341269AD31A269363E6002336
:1023E00004250D935FE680231B065344C1460993E1
:1023F00031E6002326934EE60A008446013A624401
:10240000121BEEE601FCFFFFFB799F501344D33F04
:10241000B3C8608B288AC63F0000F03F0000F83F39
:1024200061436F63A787D23F71A379094F930A4035
:102430000000E03F1655B5BBB16B0240EF39FAFE24
:10244000422EE63F00002C400000244000001840CF
:10245000FF0300002D431CEBE2361A3F80842E411F
:10246000F0B54E46DE4657464546E0B597B099462C
:10247000209E219F229B8346984607910C923B0009
:1024800032003000390001F0B4FA002800D0C1E178
:10249000012230003900CA4B524201F08FFA002865
:1024A00000D0E0E0012230003900C64B524201F07A
:1024B0009BFA002800D0B6E0002230003900C24B61
:1024C00001F092FA002800D098E000223000390094
:1024D000BE4B01F073FA002800D08FE000220023E9
:1024E0003000390001F06AFA002800D0B0E0002383
:1024F0000D93249B5B0501D40623984608AB9C46AC
:102500001722002430234146624404E0013413556D
:102510000139202C01D00929F8D88846300039002B
:1025200001F092FA4346DA00A94B05009B181A689D
:102530005B680892099301F06FFA02000B0030000B
:10254000390001F0C8F9089A099B01F0F4F90A90E2
:102550000B9101F09DFA824601F05AFA02000B003D
:102560000A980B9901F0B7F900229A4B0A900B9147
:1025700001F03AFA002800D1C0E001239C46E24471
:10258000504601F045FA02000B000898099901F045
:102590001BFA002802D000239A4601354346002B3F
:1025A00069D008AB17269C4608956644554614E04A
:1025B00001235B4243440A2128009A4600F04AFF67
:1025C000013430313719397028000A2100F042FFF8
:1025D000092D00D8D5E0D0460500202CE8D10323F2
:1025E000249A1340012B00D100E10EAB9846249BA6
:1025F00001940393239B029343461EE0249B584679
:102600000493239B00960197039343460C9A0293ED
:1026100007994B46FFF7E8FC17B0F0BCBB46B24643
:10262000A946A046F0BD249B5B070ED403226A4B4B
:1026300024990192039123990291009358464B46A5
:102640000C9A0799FFF770FBE6E70422634BEFE76C
:102650003B0032000020002101F03DF9012306007B
:102660000F000D9345E7249B0393239B02930423C0
:1026700001935B4BE1E7280001F0CEF902000B006B
:102680003000390001F027F9524B002206000F00FC
:1026900001F094F90EAB984600280AD100223000D0
:1026A00039004C4B01F0A0F9002802D1EB0700D50E
:1026B0000135202C32D008AA944617232800634401
:1026C0000A2101341E1900F09DFE303128003170BE
:1026D0000A2100F097FE051EEBD10323249A134034
:1026E000012B00D191E01F2C00D980E70D9B002B1E
:1026F0003BD02D2342461355013478E700220A9837
:102700000B99344B01F05AF9002800D046E75346A4
:10271000002B67D101239C46E2443FE70323249A20
:102720001340012B00D062E7239B002B00D15EE712
:102730000D9B002B03D1249A0C33134202D0239B10
:10274000013B2393239B9C42CDD208AB9C4617228E
:10275000302362441F2C06D82399013413558C4230
:10276000C1D0202CF8D1202441E7249B5B0721D441
:10277000249B1B0700D43AE720234246135501341B
:1027800035E75746089D202C37D02200302140469F
:10279000002F08D00132B154202A43D0D3431B1953
:1027A0001B18002BF6D10EAB98462E234146541C25
:1027B0008B547EE72B2342461355013417E7C0465E
:1027C000FFFFEFFFFFFFEF7F65CDCD4165CDCDC1B1
:1027D000306F00100000E03F346D0010386D0010C5
:1027E000446D0010DB0700D4D8E693E7239B002B51
:1027F00000D1FAE60EAB98469AE70323249A1340D9
:10280000012B00D0F1E60EAB9846239B002B00D1A4
:1028100069E78DE7249B0393239B02930323019392
:10282000064B0AE70323249A20241340012B00D0EF
:10283000DBE6239B2024002BDCD1D6E6406D001084
:10284000F0B5DE464E4657464546E0B59FB01C0003
:10285000289B93460993CF4ACF4B894608901A602C
:10286000002900D116E2002320789A46002800D1E2
:1028700018E226001D004C460AE02A006F1C5B4649
:10288000089D2100A8473D000136307800287AD005
:102890002528F2D110239A46083B9946043B9846D6
:1028A000023B00219C46721C107816000300203B5E
:1028B000DBB2102B03D8B94F9B00FB589F46030097
:1028C000303B092B3CD900230A932A2800D171E020
:1028D000002398462E2847D00300683BDBB2122B1A
:1028E0001FD8AF4A9B00D3589F460123013219439A
:1028F000DAE7634601321943D6E74346013219430A
:10290000D2E7534601321943CEE74B460132194311
:10291000CAE770786C2800D1BFE280235B001943BE
:1029200001360300253BDBB2532BA6D89D4A9B0002
:10293000D3589F4680235B00707819430136F0E737
:1029400000270300B800C01901364000C0183378D2
:1029500030381A00303A0700092AF3D90A901800D3
:10296000002398462E28B7D180237078DB001943C6
:102970000300303B721C092B00D895E12A2800D1B6
:10298000A6E11600A8E7A146AA462C00D34503D825
:1029900001235B425B449A465B465246494600200F
:1029A000089DA84720001FB0F0BCBB46B246A94610
:1029B000A046F0BD099B40CB0A96002E03DB507861
:1029C0000993561C84E72838014370420A90099302
:1029D0005078561C7CE7782800D1D4E1582800D1E3
:1029E00068E26F2800D152E3622800D1D8E11023B9
:1029F0000A009A430B92692801D000F0A2FC0A2336
:102A00000C934B0500D4D5E101230B9A9A430B920A
:102A1000692800D1CEE1642800D1CBE10B9A802354
:102A200011009B0019408A461A4200D032E38023ED
:102A300011005B00194089461A4201D000F002FCE7
:102A400013005B0600D510E30B9B1B0601D400F0BE
:102A50006EFC099B04CB1204120C92460993534658
:102A6000002B00D064E30B9A1033110099430B91B3
:102A7000520500D45CE3002399460B9B06930A9B06
:102A80000593434604930C9B03930023DEE2707886
:102A9000682800D107E280230136194341E78023EB
:102AA0009B007078194301363BE7462800D174E15A
:102AB0000722099B0491073393430A9A1900039252
:102AC000424602920CC908980092019309912A008B
:102AD0005B462100FFF7C4FC01360500D5E6099BE3
:102AE0001A0008CA9146002B00D105E121221143AA
:102AF0008A460EA884461F216144099500220F27AB
:102B0000A4460D0002E0202A0CD00B003C001C4023
:102B100020003730092C00D807380132A854190991
:102B20000F2BF0D86446099DF0E08B0700D4D1E16B
:102B3000099B2A0099466B1C98464B4601CB210005
:102B40009946089F5B46C0B2B8470A9B9C466544BD
:102B5000012B00D890E2B2465E464746A846089D43
:102B60003A003300013721002020A8474745F7D11C
:102B7000B3464B4656463D000993013685E62A008A
:102B80006F1C5B46089D21002520A84701363D00AB
:102B90007BE6C04641280010600F00204C6D0010FD
:102BA000906D0010DC6D0010099B04CB99464346E4
:102BB0000992002B00D097E013789C46002B00D19F
:102BC000B3E302235B425A1C099B924618000A9FFA
:102BD0000B92504402E0834200D169E15A780133FC
:102BE000002AF8D1099A0A979B1A0B9380230A00AE
:102BF000DB001A400C92194204D00B9B434501D9CB
:102C000043460B9302231A000A400D920B4200D157
:102C100084E16046002823D00C9B002B00D124E1E6
:102C2000A844C246099B57465B1B9846089BB24680
:102C30002A0026005C469B4609E023003100551C13
:102C4000D8474346585D002800D13FE12A0097420B
:102C5000F3D1A3463D00340056460D9B002B69D0AE
:102C60000B9B0A99A846994264D98C466544ED1A93
:102C7000089B47469A46B04626005C463A00230029
:102C8000013731002020D047AF42F7D1A3463400AE
:102C900046464FE0D24B2078089300239A460028FE
:102CA00000D0E6E5002471E6434606000A9F98003E
:102CB000C018013240008019167803003000303807
:102CC000303B0928F3D93000984616000A9703E6EE
:102CD000099B023604CB9046D2434046D21710409F
:102CE000804609933078F7E513789C46002B00D195
:102CF0001AE34346013B66E7102208009043113275
:102D0000104382460022490500D4F2E6534606935A
:102D1000082305934346049310230393002302934F
:102D200016AB019200932A005B4621000898FFF73A
:102D300063F805004B4601360993A6E520230200FF
:102D40009A43472A04D180231B0119430223984345
:102D5000452801D1202319430722099B04910733F9
:102D600093430A9A19000392424602920CC90898AA
:102D70000092019309912A005B462100FFF734F984
:102D80000136050081E510230C930C230A009A43B9
:102D90000B924B0500D43BE636E62023194387E629
:102DA00002230C930B910B996428EED10B9B5B05CE
:102DB00000D529E60B9A802311009B0019408A4612
:102DC0001A4200D0CEE0802311005B0019408946F2
:102DD0001A4200D0DBE113005B0600D51DE10B9B1E
:102DE00009991B0600D499E208C91BB2D8171A1812
:102DF000424092B209919246DA0F1292002B09D109
:102E0000802310220B99DB000B4091430B91002B88
:102E100000D012E10B9A6123920600D541230EA93E
:102E20001F228C46DBB262440A3B57461395A246EA
:102E30004D460C9CB1460D9316000AE03033DBB2D0
:102E400001357355A74200D21CE1202D00D119E1B4
:102E500007002100380000F0FDFACBB20929EDD9B6
:102E60000D9A94466344DBB2EAE7099B5F465B1B1D
:102E700098460A9BB3469A462600089C2A003B00C7
:102E80003100A04743460135585D0028F6D153462E
:102E900034000A935E46BB46DFE6C0239B00B07851
:102EA000194302363DE5C023B0781943023638E5B0
:102EB0000A979BE60C230A009A4314331A43102303
:102EC0000B920C934B0500D4A8E59DE5A346340076
:102ED0005646C2E60A9A012A00D82EE26B1E9F18B7
:102EE000089BB046994626005C462A00230001351F
:102EF00031002020C847BD42F7D1A34634004646E2
:102F0000099B3A0001CB210098467D1C5B46089F37
:102F1000C0B2B847434601360993B6E40B9A0A9803
:102F2000531C904200D80AE243199B1A1F00089BC9
:102F3000B24626005C469B462A002300013531003C
:102F40002020D847BD42F7D10A9BA34601330B93FB
:102F5000099B34001B7856469C466046002800D0EA
:102F60005AE6E7E60722099B07339343013294466A
:102F70009C4462465F6809921A68FB17109311938C
:102F800010981199030053400E930B007B400F9350
:102F900094460E9A0F9B121A8B410E920F93FB0FC1
:102FA0006246129300233A439A463DD00B9A61231E
:102FB000920600D541230022DBB20EA90A3B8C46C3
:102FC00091460D9343461F326244139515964D4624
:102FD0000E9E0F9FA14690460C9C14930FE0C04696
:102FE000251D00103032D2B2434601355A55BA453C
:102FF00000D17CE1202D00D17CE106000F002200F1
:1030000000233000390000F067FAD2B2092AE9D96A
:103010000D9B9C466244D2B2E6E7FF23099904C99E
:1030200013401A000991E6E60B9A103311009943F8
:103030000B915205BAD5002399460B9B06930A9B28
:103040000593434604930C9B0393129B02934B46B8
:10305000019316AB2A00009321005B460898FEF707
:10306000CBFE01360500FFF710FCFF22099B02CBC7
:1030700011408A460993F2E44B46454609930136CE
:10308000FFF703FC4E465446A946139DD5E7082397
:103090000C9387E60722099B07339343013294463A
:1030A0009C44624609921A685B6810009A461300B5
:1030B0005246134307D10B9A1033110099430B91D9
:1030C000520500D5D7E40B9A6123920600D541231F
:1030D0000022DBB20EA90A3B8C4691460D93434673
:1030E0001F32624457461295A2464D460400B1462F
:1030F00090460C9E13930DE03032D2B24346013518
:103100005A550023BB4200D1FDE0202D00D1FDE047
:1031100004000F00320000232000390000F0DCF929
:10312000D2B2092AE8D90D9B9C466244D2B2E5E7A7
:103130000B9A6123920600D54123DBB20EA90A3B0C
:103140001F228C460D9323006244544612951700AB
:103150004D469A46B1460C9E08E03033DBB201354D
:103160007B55B4420ED3202D0CD00400310020003A
:1031700000F070F9CBB20929EFD90D9A9446634457
:10318000DBB2ECE74E465446A946129D75E4099B16
:103190001A0008CAD91713925A184A409146DA0FF2
:1031A0001292002B08D1802310220B99DB000B40D8
:1031B00091430B91002B2BD10B9A6123920600D5E2
:1031C00041230EAA1F279446DBB20A3B0D956744A4
:1031D00055460993A2464C46B1460C9E08E0303352
:1031E000DBB201357B55B4420ED3202D0CD0040048
:1031F0003100200000F02EF9CBB20929EFD9099A4D
:1032000094466344DBB2ECE74E465446AA460D9D15
:103210000B9B2A0006930A9B2100059343460493C7
:103220000C9B08980393129B01360293534601931B
:1032300016AB00935B46FEF7DFFD139B0500099379
:10324000FFF723FB099B04CB91461293002A08D178
:10325000802310220B99DB000B4091430B91002B34
:103260002BD10B9A6123920600D541230EAA1F276A
:103270009446DBB20A3B0D95674455460993A24636
:103280004C46B1460C9E08E03033DBB201357B552D
:10329000B4420ED3202D0CD004003100200000F0E9
:1032A000D9F8CBB20929EFD9099A94466344DBB225
:1032B000ECE74E465446AA460D9D0B9B2A0006930A
:1032C0000A9B21000593434604930C9B08980393A3
:1032D000002302935346019316AB00935B46FEF71F
:1032E0008BFD129B050009930136FFF7CEFAB4421D
:1032F00000D87FE6149B4C460E960F97A946984639
:10330000159E139D99E6A64200D8FEE6139B4E46F5
:103310009846A9465446129DFFF7AFFB08C9D81737
:103320001A184240099166E500230B935EE4099B5D
:1033300004CB92460993FFF792FB2F00E0E50B9335
:103340000BE6063B0C932EE500B585B003910121F9
:1033500002900093034813004A4202A9FFF770FA53
:1033600005B000BDD91F001010B5094A030014684C
:1033700084B0002C08D0012200910648524203A9D3
:10338000A047012004B010BD01F052F80020F9E779
:10339000600F0020C91F001001480421014B18478D
:1033A00070040020C9330010142310B501001888E0
:1033B00004331B88984710BD162310B501001888E8
:1033C00002331B88984710BDF0B5C64600B50029EA
:1033D00016D01423040001259846182789004618A2
:1033E0004346216818883B88984701C4431E98418A
:1033F00040420540A642F3D1280080BCB846F0BD4B
:103400000125F9E7124A936F9B0815D29066D166A1
:10341000002905D0FFE7FFE7FFE7516F106F704706
:1034200004B580210906C2175140002800D0C843C6
:1034300003F0F2FB002104BDF0B5146E556E576F1A
:10344000166FFFF7E3FF1466556657671667F0BD02
:10345000000000D0114A936F9B0813D2106651668A
:10346000002905D0FFE7FFE7FFE7516F106F7047B6
:1034700004B5002801D00020C04303F0CDFB00219B
:1034800004BDC046F0B5146E556E576F166FFFF74A
:10349000E5FF1466556657671667F0BD000000D05B
:1034A00094464E4A926F9208624601D230E0C0467E
:1034B000F0B54A4EB56F6D08FCD3346E756E776FFC
:1034C000366F00F025F89446444A146655665767EF
:1034D00016676246F0BDC0469446404A926F920815
:1034E000624601D258E0C046F0B53C4EB56F6D085B
:1034F000FCD3346E756E776F366F00F04DF89446DE
:10350000364A14665566576716676246F0BDC04670
:10351000002B24DB11D000293EDA00B5C94340421C
:1035200000D1013100F038F8C943404200D10131E7
:10353000DB43524200D1013300BD002AEBD1002809
:1035400001D1002905D00020C90FC90701D1C0430E
:10355000410800B503F058FB0022002300BD00B570
:1035600000290ADBDB43524200D1013300F014F89A
:10357000C943404200D1013100BDC943404200D19E
:103580000131DB43524200D1013300F005F8DB4347
:10359000524200D1013300BD002923D1002B18D1A4
:1035A000002A0CD0BC460D4F38667A6600210023F5
:1035B000FFE7FFE7FFE77A6F386F6746704700283D
:1035C00001D00748010000B503F01EFB00220023D4
:1035D00000BD02000B00002000217047000000D059
:1035E000FFFFFFFF002B00D0BDE0130C26D1002A07
:1035F000E7D080B4104F39667A66FFE7FFE730B452
:10360000040C7B6F396F1B0423433B66FFE7FFE726
:10361000FFE7C04684B27B6F3D6F1B0423433B66CC
:10362000FFE7FFE7C04600232C042D0C7A6F386FAC
:1036300000196941B0BC7047000000D0F0B5944655
:103640000025140E01D112020835140F01D1120108
:103650000435940F01D192000235D40F01D15200EC
:103660000135D40B0134254F7C66254C3C660E0C8D
:1036700093B2FFE7FFE7FFE73C6F6643360C770343
:10368000BE467343DF0B5B04C01AB941130C73438E
:10369000DB18C91ACE086643360CB64493B273439E
:1036A0001F0F1B01C01AB941130C73431F0B1B05DD
:1036B000C01AB941860D8F023E436643360C092D70
:1036C00024DB520A7243801A7703460A6643360C9B
:1036D00016235B1BDE40DF40BF1964466643821B36
:1036E0007046043506330100D940A840C01900D304
:1036F0000131A24206D20023F0BD0000000000D03C
:10370000FFFFFFFF121B0130F3D3F1E709277F1BF7
:10371000FE406446A2B27243801A00D20139220CE4
:103720007243130C1204821A99410B00704604353F
:1037300013370100F940A840801900D30131002B54
:1037400002D1A2420AD2F0BD013000D30131121BD6
:10375000FAD2013BF8D1A24200D2F0BD013000D331
:103760000131121BF7E7F0B51C0C00D080E00CB45F
:1037700000251C0A04D11B02160E33431202083521
:103780001C0B04D11B01160F3343120104359C0B93
:1037900004D19B00960F334392000235DC0B02D11B
:1037A00092185B4101351C00971864410134464F63
:1037B0007C66464C3C660E0CFFE7FFE7FFE7C04621
:1037C0003C6F6643360C7703BE4697B27743C01B07
:1037D00000D20139C01B00D201399FB27743C91B07
:1037E000C91B170C77437E04FF0B801BB941CE0821
:1037F0006643360C0C2D33DBB644120B1F053A43DF
:103800001B0B97B27743C01B00D201399FB277439D
:10381000C91B170C77433E043F0C801BB941860D32
:103820008F023E43664329277F1BFE400C3D7746AF
:10383000AF40BF1930BCA2B2ABB272437343801A1F
:103840009941220C7243130C1204801A9941020010
:103850000B000137001BA941F9D2781E0021F0BDF1
:103860000C277F1BFE4077467F0BAF40FF19E0E738
:1038700000245D1C07D0144F7D663966FFE7FFE723
:10388000FFE7FFE73C6F95B29EB265436643401B7E
:10389000B141150C1E0C6543664336042F0C3E43A4
:1038A0002D04401BB141994204D202000B002000BC
:1038B0000021F0BD01D19042F7D3801A9941013423
:1038C0009942F2D3F6E70000000000D0FFFFFFFFAF
:1038D00048404140484018B41B4B5B68FC4601938C
:1038E00008BD04DF873B001018B4174B1B68FC466B
:1038F000019308BD00DF913B00109446134A926F7C
:10390000920809D2624618B40F4BDB68FC4601935B
:1039100008BD0CDF493E00100C4AF0B5146E556E20
:10392000576F166F6246FFF7EEFF084A146655663A
:1039300057671667F0BD18B4034B9B68FC460193AC
:1039400008BD08DFED3C0010EC0F0020000000D0A7
:10395000FFB550404240504059404B40594000E074
:10396000FFB5154F4C00640D03D0BC4204D10C03CD
:1039700014D80020090D09055C00640D03D0BC4279
:1039800004D11C030AD800221B0D1B0501264B4045
:1039900009D44B4003D58B4200D18242FFBD9942EE
:1039A000FCD19042FFBD0B43DB1803431343F5D01A
:1039B000C9434918FFBD0000FF07000000B5FFF72D
:1039C000CFFF804100BDC04600B5FFF7C9FF01D958
:1039D000002000BD012000BD00B5FFF7B9FF01D9EF
:1039E000002000BD012000BD00B5FFF7B1FF804100
:1039F00000BD012040054A00121804D85A001218D0
:103A000001D8002070470120704700207047000057
:103A10000021002805D17047C1174840401AFAD04C
:103A2000C90713B5064B1B6898470CBC441CA24041
:103A30001005120B0349091B09051943114310BD59
:103A4000EC1100201F04000010B54C00620D802313
:103A5000D218DB00D21A5B057E2A10DD9E3A13DAFB
:103A6000CC170903490819435242D140640001347C
:103A70001532202A05DAD0400843604310BD0020EB
:103A800010BD0846604310BDC80FC018013810BDF6
:103A900018B4044B5B6AFC46019308BD24DF7540F3
:103AA00000100000EC0F0020132370B51D78012DCD
:103AB00010D00BDD2448FFF77FFC244C010080224E
:103AC000200000F0A3FB022D01D070BD1F4C204A46
:103AD000A264FAE72E001D4C1D4AA3085B421E405B
:103AE0001D422FD0330022602020B1006118801BBE
:103AF0000A604A608A60CA600A614A618A61CA6172
:103B00000A624A628A62CA620A634A638A63CA6351
:103B10000A644A648A64CA640A654A658A65CA6531
:103B20000A664A668A66CA660A674A6740081028B3
:103B300003D18A67CA67A264C7E71E339B00E250BD
:103B4000A264C2E70023CFE753440000EC0F00203B
:103B5000553B001007B5604601880A0A0230DF2A8B
:103B6000FAD1C9B2820804D3028840880004104305
:103B700000E00068014A5050039007BDEC0F0020A0
:103B80000FB403BC0CBCF0B50124E407634000E0B3
:103B9000F0B50C0DCF0F661E3605891B640503D3E7
:103BA000C943404200D30131640D03D0661CF60ABC
:103BB00007D0E41B00207F00791C89078912803C14
:103BC00024031D0DDF0F6E1E36059B1B6D0503D3F1
:103BD000DB43524200D301336D0D03D06E1CF60A55
:103BE00007D0ED1B00227F007B1C9B079B12803DB2
:103BF0002D032F1B661B58D4A446202E46DA2037EF
:103C00001400BC401D00BD40F24033412A438018DF
:103C10005941CB0F05D0C943C043002264425041F3
:103C2000514162464D0D28D10D0D07D100281FD0FE
:103C3000241940414941013A0D0DF9D0640006D3E1
:103C4000013000D30131002C01D140084000013A7D
:103C50000BD4941CE40A04D112051144DB07194467
:103C6000F0BDD907204B194300E0D9070020F0BD73
:103C70000029DDD1002CDBD1F0BD0132C6074008A0
:103C8000CD0728434908002EE1D0D9E73C2E29DA98
:103C9000203E40371400BC4000D00124F2401443C1
:103CA0001A00BB401C43D317ACE7AC46202F08DA00
:103CB00020360400B4400D00B540F8403941284397
:103CC000A5E73C2F0CDA203F40360400B44000D07A
:103CD0000124F84004430800B1400C43C117EAE74F
:103CE00010001900002494E70000F07FF0B50C0DDF
:103CF000661E3605891BE60A6405640D02D0651C44
:103D0000ED0A04D0002001210905803C2403A446CB
:103D10001C0D671E3F05DB1BE70A6405640D02D01E
:103D2000651CED0A04D0002201231B05803C2403FE
:103D30007740644497B484B296B27443070C7E43D0
:103D4000150C6F4380B26843361802D3012000047B
:103D50003F183004350C00197D41844688B29AB270
:103D600050430C0C62431F0C7C438EB27E4392196D
:103D700002D301263604A4191604170C361867411D
:103D800001BC81B29AB25143040C62431B0C5C43E8
:103D900080B25843121802D30120000424181004E2
:103DA000130C401863412D185E410020474106BCAA
:103DB00088B293B258430C0C6343120C544389B23B
:103DC00051435B1802D301210904641819041A0C29
:103DD000091862416D1856410020474118BCF9028C
:103DE000720D1143F0026A0D1043ED020A0D03D16A
:103DF0006D1940414941013B124E9B1B7600B34275
:103E00000ED26D0007D3013000267141664635435E
:103E100001D1400840001B05C918E4072144F0BD4A
:103E20000BDA013306D1013004D101314F0D01D03D
:103E30004908F2E7E1070020F0BD01363105002016
:103E4000EBE70000FF030000F0B51C0D671E3F0507
:103E5000DB1BE70A6405640D02D0661CF60A04D079
:103E6000002201231B05803C2403D0252D060026BB
:103E7000F6432E661E096E66CE0FF619B44649004B
:103E80004F0D02D07E1CF60A03D000200021403FD7
:103E90003F033E1BB600B444013F7F05C91B4908E0
:103EA0002E6F013676089C02950D25437543ED1360
:103EB0007543AD1301356D10F603761B0CB4CC02BF
:103EC000450D2C43A2B2B3B25A43270C7B43350CA9
:103ED0006F43A4B26C431B1902D3012424043F197D
:103EE0001C041D0CA4187D4124196D41009A91B247
:103EF000ACB26143170C7C432B0C5F4392B25A4324
:103F0000A41802D301221204BF182204230C521851
:103F10007B41019C6C431B19520ED9010A43440199
:103F2000A01A81B2B2B2514303145A43360C734300
:103F300087B27743D617D21900277E4136049B19E2
:103F40001704160C7F185E417316ED18F301002656
:103F500080337541A90F06D16400690AE8055B0A40
:103F6000184309D22FE00422944480337541A90AF2
:103F7000A8059B0A184326D3404149412404009ACE
:103F8000019B0D005543641B4343E41A95B286B26E
:103F90007543170C7E43030C5F4392B25A43B61825
:103FA00002D301221204BF183204330C52197B4190
:103FB00052429C41002C02D4002201305141400861
:103FC000CA071043490802B06246D7079210084B4F
:103FD000D218084B9A4203D212058918C919F0BDAC
:103FE0000020002A01DC3900F0BD01331905F5E796
:103FF000FD030000FE070000624618CA944600292F
:104000001ADAC01861415B463B415C46B4405246F7
:10401000FA40224344464D4662416B4190469946E0
:104020002B46B3403D41FC401C4352465B46A241F7
:10403000AB4192469B467047C01AA1414B463B415B
:104040004C46B4404246FA40224354465D466241E3
:104050006B4192469B462B46B3403D41FC401C437E
:1040600042464B46A241AB419046994670470020DC
:1040700000217047002200B5203200F004F808004B
:1040800000BD000000220B15F1D410B5944600F0DD
:104090002FF81414013400DA0021CB17134C2047F9
:1040A0006244343A0CD40C2A07DA04009140904060
:1040B00052422032D440214310BDD843D94310BDD1
:1040C000203207D40C469440524220321141D04055
:1040D000204310BD0800C917203203D452422032B9
:1040E000104110BD1800190010BD0000A1400010C3
:1040F0000A0DCC0F531E1B05C91A520503D3C94321
:10410000404200D30131520D03D0531CDB0A07D0CB
:10411000121B00206400611C89078912803A120377
:10412000014BD21A70470000FF0300005143434384
:10413000C9188C46110C83B24B4310B4040C614374
:1041400092B280B2504362431C041B0C001910BC95
:1041500059411304120CC0185141614470470000CA
:10416000132310B512481C78FFF726F90100012C23
:104170000AD003DD80220F4800F048F80E48FFF710
:1041800013F90E4B186010BD0A4C5422200000F0A9
:104190003DF80B4B6365A365E36523666366A36621
:1041A000E36623676367A367E3672362E361E5E789
:1041B00053460000EC1000204C330000EC110020AE
:1041C000C541001007B5604601880A0A0230DF2A9F
:1041D000FAD1C9B2820804D302884088000410438F
:1041E00000E00068014A5050039007BDEC10002029
:1041F00001480421014B184780040020C9330010F6
:10420000014B1B681847000080040020014B5B68CD
:104210001847000080040020F8B54746CE460D0040
:1042200080B516000700002A20DD4B1E98461A4B69
:10423000002400209946002C2BD043461B5D0D3BEB
:104240005A425341DBB22A5D0A2A13D00134A642F6
:10425000F1DC864203DD311A3B6828189847AD1916
:10426000013D2B780D3B5A4253413B74C0BCB946CB
:10427000B046F8BD002BE9D1A04203DA211A3B6811
:1042800028189847484602213B6801349847200087
:10429000DDE73B7CD7E7C046E86F0010F8B547463E
:1042A000CE460C00096880B50700802907D04B1C5A
:1042B000236064182771C0BCB946B046F8BD134BE3
:1042C0001D68002D1BD0124B9846231D994602E015
:1042D000ED68002D13D02E68002EF9D043461B68E0
:1042E000002B01D09D42F3D16B7C2268002B09D0BA
:1042F00028004946FFF790FFED68002DEBD1012320
:104300000021D5E711004846B047E1E7580B0020EF
:104310005C0B0020F0B557464546DE464E46D0239E
:10432000E0B51B061C68374B83B007000D00180072
:1043300001A990469A4602F077FC8146002808D1F0
:10434000019B64B29C4204D0504602F07DFC0123E4
:1043500099466B1C03D1380002F016FC05002A4B6D
:104360001C68002C2FD00A23284E9B4602E0E468EC
:10437000002C28D02268002AF9D03368002B01D005
:10438000A342F4D1637C002B2AD02A0039002000FC
:10439000FFF742FF4346002BE9D06B465A461A719D
:1043A000637C002B20D0237C002B26D001212368A6
:1043B00001A898476B461B790D3B5A425341237421
:1043C000E468002CD6D14B46002B12D1681E8541E3
:1043D000E8B203B0F0BCBB46B246A946A046F0BD69
:1043E000290038009047D5E70121236801A89847A4
:1043F000BDE7504602F000FCE8E7022104482368CC
:104400009847D7E7D0040020580B00205C0B002011
:10441000E86F001010B582B06B4604000022D81D72
:1044200001210470FFF776FF200002B010BDC046E6
:1044300070B5040002F0A8FB012201000500200075
:10444000FFF768FF084B1C68002C06D06368002B40
:1044500005D09847E468002CF8D1280070BDE468C6
:10446000002CF3D1F9E7C046580B00200D4A136821
:10447000002B13D0834202D109E0984208D01A00E1
:10448000DB68002BF9D1002900D0D06070471A00FA
:104490000029FBD1DB68D360C160F7E70029F5D0C4
:1044A0001060F3E7580B0020F0B54646D6464F465D
:1044B000D023C0B51B061F68324BA2B004000D000C
:1044C000180001A9984602F0AFFB061E07D1019B18
:1044D0007FB29F4203D0404602F0B6FB01368422F1
:1044E000002101A8FFF78CFE2B002200264801A91D
:1044F000FEF72AFF019B0700002B15D1234B1C68F8
:10450000002C06D06368002B0CD09847E468002C80
:10451000F8D1002E2FD1380022B0E0BCBA46B14607
:10452000A846F0BDE468EBE7184B1D689A46002DDD
:1045300025D0174B994602E0ED68002D13D02C686A
:10454000002CF9D04B461B68002B01D09D42F3D1C3
:104550006B7C019A002B0AD0280002A9FFF75CFEB1
:10456000ED68002DEBD1534601951C68C8E711009A
:1045700002A8A047E0E7404602F03EFBCBE70195EA
:10458000C7E7C046D00400209D420010580B002011
:104590005C0B00200FB400B583B004A901C90191E0
:1045A000FFF782FF03B008BC04B0184710B500F055
:1045B00035F910BD7047C0460022014B1A70704794
:1045C000B60F00204B790020FF2B0BD18B79002BED
:1045D00008D1CB79012B05D1082A03D98A78024B5F
:1045E00009301A707047C046B60F0020012070478E
:1045F00070B5002915D115495379107909781B0236
:1046000003430020994200D070BD5378012B0AD09B
:10461000022BF9D1002064220021FDF723FB0120A9
:10462000F2E70120F0E79478D278050012021443F3
:10463000D20502D5620A93401D000548FEF7B4FE7C
:104640007F210300214028009847C046B60F002074
:10465000554200000123037000487047EC6F0010C2
:104660004A780B7812021A438B7810B51B041A4350
:10467000CB781B0613439622D200934200D010BD84
:104680000348FEF791FE0021030008009847C0464A
:104690005542000070B5184C82B006000D00200095
:1046A00001A902F0C1FA002808D1D0231B061B681B
:1046B000019A9A421CD0200002F0C6FA002001F0B4
:1046C00055FC002807D103256D42200002F094FA22
:1046D000280002B070BD002001F060FC0028F2D07C
:1046E0002A003100002001F065FC051EEBD0ECE74C
:1046F00003256D42ECE7C046880F0020F0B54F4619
:10470000D6464646C0B5354B82B007000D001800AE
:1047100001A9994602F088FA002808D1D0231B0687
:104720001B68019A9A4252D0484602F08DFA002046
:1047300001F01CFC002842D00024002D44DD284B51
:104740009A46984611E03919002001F0A7FC0600AE
:1047500000F0C6FC002001F065FCFCF787FB434637
:1047600018605960A419AC422EDA002001F0B0FCA8
:104770002E1B0200B04200DD3200002AE3D100F01F
:10478000AFFC002001F04EFC002001F0EFFB002800
:104790001AD0002001F09CFC0028E4D1FCF766FB55
:1047A00053460E001A685B68002184460D481218B3
:1047B0004B419E4208D8D6D19445D4D904E000207C
:1047C0000021074B18605960484602F015FA02B004
:1047D000E0BCBA46B146A846F0BDC046880F0020EE
:1047E0000006002020A107001F2010B5FDF752F899
:1047F000FA200021800010BD10B5074C00212000D8
:1048000002F012FA002800D110BD00F069FC20006F
:1048100002F0F2F9F8E7C046880F002070B51E4B91
:1048200084B01B7801F066FE1F201C49FDF742F89A
:1048300001211F20FDF71CF81948FCF701FCFCF7CB
:1048400069F90600FCF712FBFA2204000D000023B0
:10485000920012196B41994214D811D00121029192
:10486000002101910F4930000091FCF757F9040035
:10487000631E9C41E4B2002808D1200004B070BD42
:104880009042EBD901225242D317E7E701210648B3
:10489000FFF7ECFDF1E7C04644720010F947001045
:1048A000880F0020E947001090040020004870475E
:1048B000A4700010004870475070001010B504003C
:1048C00016480378002B20D0002C06D1144B154835
:1048D0004380063BFF3B038010BD052C1CD8124BC8
:1048E0001048A400E458811C002304E001330A802E
:1048F0000231132B0DD0E25C002AF7D1C022013324
:104900005B00920013439BB2E5E7112102F03EF8F1
:10491000DAE7CA239B00DEE70020DDE7A00F0020D6
:1049200009040000300B0020B8700010F0B5982387
:1049300057464546DE464E46484AE0B5D75880259C
:104940003C0085B06D02883B2C4003932F4214D06D
:10495000012123200022424B2C001954D9702F3101
:104960005A541A74002001323E4901F053F8802253
:104970003D4B92021A653D4B0393FB062AD48023DC
:104980009B011F420CD180235B011F4215D1BC4209
:104990005FD105B0F0BCBB46B246A946A046F0BD0B
:1049A0001C432E4B1B6DDB034DD580222E4B520238
:1049B0001A6580235B011F42E9D00021274A0020AD
:1049C000116001221C4300F0FBFF8022264B1203E2
:1049D0001A65DCE7214B9A6D002A26D09A46224BB5
:1049E000B946002601259B46170003E06D000136FD
:1049F000202E19D02F42F9D05346DB6D5B460122A1
:104A00009D6573085C00164B90469C46B243A41803
:104A100064016444200000F009FA002807D1AF4384
:104A200001366D00002FE3D14F46039CA7E74346B4
:104A3000A28AA17800200093002301F013F820003F
:104A400000F0CEF9EBE701220221002000F044FF44
:104A5000ABE7210006487940FCF78EFD00001150BD
:104A6000600B0020000010500030115010000100B9
:104A7000D070001010B501210520FCF7F9FE10BD23
:104A800001222321002310B506484254C2702F3260
:104A900083540374002200212030013300F048FACF
:104AA00010BDC046600B00208022024B5202DA6427
:104AB0007047C0460020115070B5050000F068F93D
:104AC00005201C49FCF7F6FE80221B4C002120002B
:104AD000D200FFF795FB194B194A40201A6080233A
:104AE0005B00638001220023212616496270A083A7
:104AF000A377A1600B60A0870238A3552354124905
:104B000012486036FF366360E16022706684A062FE
:104B1000036063622033E2540D4BE1621A64802229
:104B20009205DA6490220B4928009950FFF7BCFFE8
:104B300070BDC0462D490010600B0020680F00209A
:104B4000800110508400105000011050800010505F
:104B500000001150103001000B785B0602D14B7839
:104B6000052B09D0012123200022054BD9701954AF
:104B70002F311A745A5470478A78024B1A60F1E741
:104B8000600B0020000011500720F0B54F4646464C
:104B9000D6464A79CC780B7910400002A407184316
:104BA000A30F99469A467F23C0B58F783A4E3B4073
:104BB000FD0959004A195201B218977001276F4038
:104BC00057705F425F41D7704A46012A4CD0402857
:104BD0004ED84F464A195201B21890839777DA009F
:104BE000012D49D02D4F0024BC469F016244F71986
:104BF000BA601460002B0FD100226B01F3185A60C9
:104C0000274ADA6001224B195B010120F254E0BC13
:104C1000BA46B146A846F0BDDA00224B9C46624433
:104C20007A604B195B01F25C002AEBD11E4FF3183E
:104C30003A68DA60031C402800D940233F209BB229
:104C4000D318034201D0834340333B60174B5A4093
:104C500053469C061443A0224B195B01F3185B6872
:104C6000120614431C60CDE78022D2009042B0D3DC
:104C700001000F48FCF780FC0E4C9F01A446002465
:104C80006244F719BA621460002BB5D0074ADB0002
:104C9000944663447B62C4E7600B0020840010509C
:104CA0000001105004001050680F00200000105048
:104CB000E47000108000105010B57F200C002040E0
:104CC0004000E409110000191A00044B4001C0180B
:104CD000012300F02DF9012010BDC046600B00201B
:104CE0007F2270B50D00110029404C00ED090B4EDC
:104CF00060194001301883781A4204D17D3ADB09EB
:104D0000D31A074A936680220649120100F06EF812
:104D10000123641964013419237470BD600B0020F1
:104D200000201150FFF7FFFF7F2270B50D0011002A
:104D300029404C00ED090B4E601940013018837872
:104D40001A4204D17D3ADB09D31A074A936600223E
:104D5000064900F04BF800236419640134192374E8
:104D600070BDC046600B002000301150FFF7FFFF00
:104D70007F2110B58078044AC3099B0001409A58EE
:104D80000248FCF7F9FBC046A40400200C71001097
:104D900080220E4B520410B51A600D4B0D491A605B
:104DA00010008B689843FBD10B4C9C220021200003
:104DB000FFF726FA8022002152010848FFF720FA67
:104DC000092363670333A36710BDC04600E00040BA
:104DD00000F0004000C000400000115000001050E2
:104DE00000230361436183617047C04610B5836847
:104DF000002901D01C682140002A11D08024E40041
:104E0000114322420CD01A6822420BD1064A0A40B2
:104E10001A60FFE7FFE7FFE7FFE7FFE7FFE78368C9
:104E2000196010BDFFF7A4FFFFFBFFFFF8B5467C3C
:104E30000400002E00D169E0836840781968890574
:104E40008D0D002847D1A18A691889B2A182A58B4E
:104E5000628A2B1C3F2D2BD99FB2BC46551AAFB28C
:104E6000BC4523D89DB2E3828A424CD349D0002866
:104E700026D08022D2002A43E378002B02D0802162
:104E800089010A4301214B40A168E3700B685B056F
:104E900043D4234B13400B60FFE7FFE7FFE7FFE737
:104EA000FFE7FFE70020A3681A60F8BD2B1CD9E7D5
:104EB00040239FB2BC46551AAFB2BC45D2D9F5E7E4
:104EC000A3692A009C46E0686144FFF79FF98422A9
:104ED00012022A43D0E7A369A08A9C46E1682A000F
:104EE0006044FFF793F9A18A6078691889B2A182BA
:104EF0000028ACD0E38AAB42A9D900236182E382C7
:104F0000D3E73000D1E70748FCF736FB7F238178F1
:104F1000054A06481940FCF72FFB2000FFF728FF41
:104F2000FFFBFFFF58710010A40400202C7100103B
:104F300070B50400002B49D0437C002B01D0002326
:104F400003740023A08BA3826282031C3F2830D904
:104F500098B2904223D89DB2E382012363746378B0
:104F6000A161002B2AD08022D2002A43E378002BB3
:104F700002D0802189010A4301214B40A168E370DE
:104F80000B685B0525D4144B13400B60FFE7FFE76C
:104F9000FFE7FFE7FFE7FFE7A3681A6070BD131C98
:104FA0009DB2E382012363746378A161002BDAD19F
:104FB00004E0402398B29042CDD9F0E72A00E0689F
:104FC000FFF724F9842212022A43CFE7FFF72EFFCE
:104FD000E4E72000FFF7CCFEFFFBFFFF024B587811
:104FE000431E9841C0B2704774090020024B1878E4
:104FF0004007C00F7047C04674090020014B187865
:105000007047C046B20F0020F8B54746CE4680B57F
:10501000294F05003B78002B04D00120C0BCB946C5
:10502000B046F8BD372200212448FFF7E9F8244CA8
:105030002000FCF705F8234B1C60234C20001C309B
:10504000FCF71AF8200001F055FC204B204E1C60A4
:10505000204B9846002B04D03000FFF7FBFA1E4B84
:105060001860424600243378002A1DD01B4A90461F
:10507000194A91469C4210D31BD1434698470134AC
:105080003378E4B2A342F5D22800FFF715FD2800DB
:10509000FFF7F0FC01233B70BFE74A46630012684C
:1050A0001B19DB009B58E9E701F01EF83378002B51
:1050B000EAD000231B68FFDEB20F00207409002035
:1050C0002C090020AC090020AC040020B00900200D
:1050D000B10F0020554600103C060020E96000108A
:1050E000F0B5DE4657464E464546E0B58BB001F07A
:1050F00007FA002800D132E1B94B07AC9A46B94B08
:105100009B4653461D68EA69EFF3108372B6116837
:105110000029FCD0BFF35F8F2B622100280001F033
:1051200055FAEA692B6ABFF35F8F0021116083F3A0
:105130001088002800D112E16378082BE1D85A4684
:105140009B00D3589F466368002BDAD0A06898472D
:10515000D7E77F222179A44B0A405500C8095B1983
:105160001B181800012620304579B5434571457953
:105170000336B5434571002A00D1F7E09B4ADB7C3A
:10518000002A06D09A4A1278934200D279E19B1AFB
:10519000DBB2002B00D0E2E0964D62792078A36864
:1051A000A847AEE70122904F01213B78042013432A
:1051B0003B702523FA5C8A43FA54FA5C8243FA5422
:1051C0000133FA5C8A43FA54FA5C8243FA54237836
:1051D0000020009300F03AFE602223791A40602AF2
:1051E0000DD0402A00D1DDE0DB06DB0E012B00D123
:1051F00052E1022B00D10FE1002B00D1E1E0207839
:105200000021FFF76DFD80212078FFF769FD78E729
:10521000794B002B00D174E700E000BF71E7774BBA
:10522000002B00D16DE7704B18780007C00F00E02D
:1052300000BF66E76E4E6D4A00253378002A00D124
:10524000A3E06F4F9D4208D39D4200D0A0E00135FE
:10525000EDB29D4200D954E7F6D239686A008C4617
:105260005219D20062445269002AF0D02078904747
:1052700001353378EDB29D42E4D942E7372200216F
:1052800059482778FEF7BCFF1022FF215D48FEF742
:10529000B7FF55481222FF211330FEF7B1FF00F08F
:1052A000CBFD534E514A00253378002A64D0564A2C
:1052B0009046534A9146AB423FD863D143463800AB
:1052C000984701353378EDB2AB42F4D24F4B002B07
:1052D00000D116E700E000BF13E7434F23783722E1
:1052E000002138009846FEF78BFF1022FF21F81CA2
:1052F000FEF786FF38001222FF211330FEF780FFF1
:1053000000F09AFD3A4E394A00253378002A42D0FF
:105310003B4A91463A003700464690469D4215D397
:1053200030D1394B3000984701353B78EDB2AB4274
:10533000F4D247462379BB70E3E64A4612686B0015
:1053400094465B19DB0063445B68B8E74A46126821
:105350006B0094465B19DB0063445B68E2E70BB0CB
:10536000F0BCBB46B246A946A046F0BD62792078A3
:10537000A36800F07FFDC4E6380000F0F3FE337848
:10538000002BA3D000235B68FFDE002B00D1B8E622
:1053900000235B69FFDE404600F0E4FE3378002B1B
:1053A000C8D0EFE71A48002800D128E700F04EFDEA
:1053B0000021009808AA00E000BF002800D0A0E665
:1053C0001DE7202A00D198E0002A00D017E7637972
:1053D000092B00D913E70F4A9B00D3589F46C046BC
:1053E000B009002084710010740900205546001097
:1053F000B10F00205D6300100000000000000000FD
:105400003C060020770900206561001000000000C4
:1054100000000000A87100107F25217A0D40082DA2
:1054200000D9ECE6CB0998466D007B19BF48434490
:10543000DB7C002805D0BE48007883427ED31B1A4F
:10544000DBB2002B76D1002A00D022E1B94E022235
:10545000637999469343012B00D11DE14B46002B04
:1054600000D0CCE67B19434420335B7906AA9B0726
:10547000DB0F023213800098022308A900F080FCA1
:105480003FE65A00D318AC4ADB001268D318002B51
:1054900000D164E71D6980E6237A0F2B00D9AEE6C0
:1054A000A24AFB18DB78002A05D0A14A1278934261
:1054B00058D39B1ADBB2002B00D0A0E69F489D4D2D
:1054C00000F0C4FC0021EB68009808AA9847002867
:1054D00000D016E660221100237919401A4200D04C
:1054E0008DE663790A2B00D109E10B2B00D086E60B
:1054F000009808A900F02CFC03E6237A0F2B00D9B2
:105500007DE68A4AFB18DB78002A06D0884A1278A2
:10551000934200D2E8E09B1ADBB2002B00D06EE68B
:105520008648844D00F092FC0021EB68009808AAA0
:10553000984742E70026002A89D060E67E485E0050
:10554000F3180668DB00F618002A80D0002E00D180
:1055500055E6F06800F07AFC0021F368009808AA8C
:1055600098472AE7744A5D00EB181568DB00ED18D0
:10557000002D00D143E6E868A2E7E388012B00D0C4
:105580003DE608223B780098934308A93B7000F061
:10559000DFFBB6E50220397806AB9A1C8B0689083A
:1055A000DB0F01400B4365E7A37903931A007B7877
:1055B000002B02D1002A00D0C8E0039B009808A964
:1055C0007B7000F0C5FB9CE57B7806AA0232137065
:1055D0000098012308A900F0D3FB92E5E388A079A5
:1055E0001B0A0F2B00D90AE6554A9B00D3589F4649
:1055F00008A800F031FCA1790098FFF741FA0222D7
:105600003B7813433B707CE5E388012B00D0F6E543
:1056100008223B780098134308A93B7000F098FBE0
:105620006FE5484B002B00D1E9E500E000BF050025
:1056300006AB9E1CA91C02223000FEF7E7FD2A00E3
:105640003388009808A900F09BFBB6E63E4B002B80
:1056500000D1D4E500E000BF021E00D1CFE51378F1
:10566000009808A900F08CFBA7E62189FFF726F92E
:10567000021EF4D1C3E5FFF71DF9051ED8D1BEE522
:10568000FFF714F91223020008A9009800F078FB34
:1056900093E62A48274E5DE7E388002B10D14B465E
:1056A0000098012B34D0FFF71BFB02217B194344E8
:1056B00020335A790A4301215A715A790A435A719F
:1056C000002E00D11DE5F06800F0C0FBF36800215A
:1056D00008AA00989847002000F0B8FB2623FB5C3E
:1056E000DB0700D50DE503E7134A5D00EB181568ED
:1056F000DB00ED18002D00D181E5E86812E706AB6C
:105700009A1C11700123009808A900F039FBF8E4F5
:10571000FFF70AFB02217B19434420335A798A435D
:1057200049465A715A798A435A71C9E75546001059
:10573000B10F0020107200103C0600207D620010A6
:10574000D07100100000000000000000501EC0B228
:10575000FFF7B0F8002800D151E54378022B00D0C4
:105760004DE501210600C2790936931152110B4013
:105770000A4012015B0113433A782F318A431343E5
:105780003B70C37882781B021343C31804934D4BBC
:10579000B84699463700049BBB4200D888E00023F6
:1057A0007A7802930B2A04D13B780297FB181F00EA
:1057B0005A78042A00D022E5049B434ADB1B9BB2A3
:1057C00001934B4600251B78002A10D11CE09D4216
:1057D00026D13E4B3900019A00989847002822D1E3
:1057E0004B4601351B78EDB2AB4200D207E59D4236
:1057F000EDD2374B1B680593059A6B0094465B19F5
:10580000DB0063449B68E5E73900019A009800F0EB
:10581000BFFC061E54D14B461B78002B00D1EEE492
:1058200000239B68FFDE0600082E00D8E7E4019BFA
:10583000B34200D2E3E44246BB78D218D178FF29C4
:1058400000D0DCE4D570029A002A15D091781000BF
:10585000994200D0D3E412797B799A4200D0CEE409
:10586000C278012A08D9023A04314144D2B2080070
:1058700001322900FEF7C4FC7F213A0000238C4648
:105880005178052907D1614690780140490041448B
:105890001331C0090D5411785B189BB25218B342F2
:1058A000EED34B461B78BF19AB4200D373E7A6E497
:1058B000084B4746002B00D17FE600E000BF7CE6A6
:1058C000014DB1E7B10F0020554600109161001065
:1058D0003C0600200000000030B585B005000C003B
:1058E0000C22002101A8FEF78BFC6B461D715C7138
:1058F000042C29D005D8022C38D0032C51D105B066
:1059000030BD052C4DD12C4B1A78D207F7D5042188
:105910001A788A431A70294B1C68E269EFF31081E8
:1059200072B61368002BFCD0BFF35F8F216220009A
:1059300001A900F017FFE269236ABFF35F8F00211E
:10594000116083F31088DAE71B4B1A78D207D6D59B
:1059500004211A780A431A70184B1C68E269EFF3A5
:10596000108172B61368002BDED1FBE7124B1A7858
:10597000D207C4D501211A788A431A701A780331E4
:10598000A2431A7000225A701A788A431A700B4B7D
:105990001C68E269EFF3108172B61368002BC3D163
:1059A000FBE7064B1C68E269EFF3108172B61368DF
:1059B000002BB9D1FBE7C04674090020B0090020D4
:1059C00070B584B001AD06000C000C220021280047
:1059D000FEF716FC01236B700D4B2C711C682E70AA
:1059E000E269EFF3108372B611680029FCD0BFF3AF
:1059F0005F8F23622900200000F0B4FEE269236A71
:105A0000BFF35F8F0021116083F3108804B070BD75
:105A1000B0090020002330B585B001AD6B8028703F
:105A20000633082202A86B70FEF7F0FB0C4B1C68D3
:105A3000E269EFF3108372B611680029FCD0BFF35E
:105A40005F8F23622900200000F08CFEE269236A48
:105A5000BFF35F8F0021116083F3108805B030BD64
:105A6000B0090020F0B5C646804600B584B001AC50
:105A70000F0016000021082220001D00FEF7C0FBC9
:105A800043462370072363700F4B65711D682771B0
:105A9000A660EA69EFF3108372B611680029FCD0A2
:105AA000BFF35F8F2B622100280000F05BFEEA69E4
:105AB0002B6ABFF35F8F0021116083F3108804B05D
:105AC00080BCB846F0BDC046B0090020F8B54546D8
:105AD00057464E46DE468046E0B50C0017001D00D6
